{
  "contractName": "Tasks",
  "abi": [
    {
      "constant": true,
      "inputs": [
        {
          "name": "",
          "type": "uint256"
        }
      ],
      "name": "Charities",
      "outputs": [
        {
          "name": "name",
          "type": "string"
        },
        {
          "name": "charity",
          "type": "address"
        }
      ],
      "payable": false,
      "stateMutability": "view",
      "type": "function",
      "signature": "0x32d3c76a"
    },
    {
      "constant": true,
      "inputs": [],
      "name": "tasks",
      "outputs": [
        {
          "name": "",
          "type": "string"
        }
      ],
      "payable": false,
      "stateMutability": "view",
      "type": "function",
      "signature": "0xc305a6d9"
    },
    {
      "constant": true,
      "inputs": [
        {
          "name": "",
          "type": "address"
        }
      ],
      "name": "Pledgers",
      "outputs": [
        {
          "name": "taskCount",
          "type": "uint256"
        }
      ],
      "payable": false,
      "stateMutability": "view",
      "type": "function",
      "signature": "0xe10a9448"
    },
    {
      "inputs": [],
      "payable": false,
      "stateMutability": "nonpayable",
      "type": "constructor",
      "signature": "constructor"
    },
    {
      "constant": false,
      "inputs": [
        {
          "name": "desc",
          "type": "string"
        },
        {
          "name": "end_time",
          "type": "uint256"
        },
        {
          "name": "start_time",
          "type": "uint256"
        },
        {
          "name": "charity",
          "type": "address"
        }
      ],
      "name": "addTask",
      "outputs": [],
      "payable": true,
      "stateMutability": "payable",
      "type": "function",
      "signature": "0xa919057c"
    },
    {
      "constant": true,
      "inputs": [
        {
          "name": "taskid",
          "type": "uint32"
        }
      ],
      "name": "showTask",
      "outputs": [
        {
          "name": "",
          "type": "uint256"
        },
        {
          "name": "",
          "type": "uint256"
        },
        {
          "name": "",
          "type": "string"
        },
        {
          "name": "",
          "type": "uint256"
        },
        {
          "name": "",
          "type": "uint8"
        }
      ],
      "payable": false,
      "stateMutability": "view",
      "type": "function",
      "signature": "0x92ab8d93"
    },
    {
      "constant": false,
      "inputs": [
        {
          "name": "taskid",
          "type": "uint256"
        },
        {
          "name": "timelimit",
          "type": "uint256"
        }
      ],
      "name": "completeTask",
      "outputs": [],
      "payable": false,
      "stateMutability": "nonpayable",
      "type": "function",
      "signature": "0x108c8ae4"
    },
    {
      "constant": false,
      "inputs": [
        {
          "name": "time_now",
          "type": "uint256"
        },
        {
          "name": "rand",
          "type": "uint256"
        }
      ],
      "name": "sendToCharity",
      "outputs": [],
      "payable": false,
      "stateMutability": "nonpayable",
      "type": "function",
      "signature": "0x90baa95a"
    },
    {
      "constant": true,
      "inputs": [],
      "name": "getUsersLength",
      "outputs": [
        {
          "name": "",
          "type": "uint256"
        }
      ],
      "payable": false,
      "stateMutability": "view",
      "type": "function",
      "signature": "0x595b1a3e"
    },
    {
      "constant": true,
      "inputs": [
        {
          "name": "userid",
          "type": "uint256"
        }
      ],
      "name": "getUserTasksLength",
      "outputs": [
        {
          "name": "",
          "type": "uint256"
        }
      ],
      "payable": false,
      "stateMutability": "view",
      "type": "function",
      "signature": "0x8fca5de0"
    },
    {
      "constant": true,
      "inputs": [
        {
          "name": "userid",
          "type": "uint256"
        },
        {
          "name": "taskid",
          "type": "uint256"
        },
        {
          "name": "time_now",
          "type": "uint256"
        }
      ],
      "name": "isTaskStateFailed",
      "outputs": [
        {
          "name": "",
          "type": "bool"
        }
      ],
      "payable": false,
      "stateMutability": "view",
      "type": "function",
      "signature": "0x89a1101c"
    },
    {
      "constant": false,
      "inputs": [
        {
          "name": "userids",
          "type": "uint256[]"
        },
        {
          "name": "taskids",
          "type": "uint256[]"
        }
      ],
      "name": "payCharities",
      "outputs": [],
      "payable": false,
      "stateMutability": "nonpayable",
      "type": "function",
      "signature": "0x0c00d178"
    },
    {
      "constant": false,
      "inputs": [
        {
          "name": "name",
          "type": "string"
        },
        {
          "name": "charity",
          "type": "address"
        }
      ],
      "name": "addCharity",
      "outputs": [],
      "payable": false,
      "stateMutability": "nonpayable",
      "type": "function",
      "signature": "0x1ab91517"
    },
    {
      "constant": true,
      "inputs": [],
      "name": "getCharitiesLength",
      "outputs": [
        {
          "name": "",
          "type": "uint256"
        }
      ],
      "payable": false,
      "stateMutability": "view",
      "type": "function",
      "signature": "0x521d79d5"
    },
    {
      "constant": true,
      "inputs": [
        {
          "name": "index",
          "type": "uint256"
        }
      ],
      "name": "getCharity",
      "outputs": [
        {
          "name": "",
          "type": "address"
        },
        {
          "name": "",
          "type": "string"
        }
      ],
      "payable": false,
      "stateMutability": "view",
      "type": "function",
      "signature": "0xfd67db81"
    },
    {
      "constant": true,
      "inputs": [],
      "name": "getOwner",
      "outputs": [
        {
          "name": "",
          "type": "address"
        }
      ],
      "payable": false,
      "stateMutability": "view",
      "type": "function",
      "signature": "0x893d20e8"
    }
  ],
  "bytecode": "0x608060405234801561001057600080fd5b5033600260006101000a81548173ffffffffffffffffffffffffffffffffffffffff021916908373ffffffffffffffffffffffffffffffffffffffff16021790555061270b806100616000396000f3fe6080604052600436106100db576000357c0100000000000000000000000000000000000000000000000000000000900463ffffffff1680630c00d178146100e0578063108c8ae4146102395780631ab915171461027e57806332d3c76a14610366578063521d79d51461044d578063595b1a3e14610478578063893d20e8146104a357806389a1101c146104fa5780638fca5de01461056157806390baa95a146105b057806392ab8d93146105f5578063a919057c146106d9578063c305a6d9146107c8578063e10a944814610858578063fd67db81146108bd575b600080fd5b3480156100ec57600080fd5b506102376004803603604081101561010357600080fd5b810190808035906020019064010000000081111561012057600080fd5b82018360208201111561013257600080fd5b8035906020019184602083028401116401000000008311171561015457600080fd5b919080806020026020016040519081016040528093929190818152602001838360200280828437600081840152601f19601f820116905080830192505050505050509192919290803590602001906401000000008111156101b457600080fd5b8201836020820111156101c657600080fd5b803590602001918460208302840111640100000000831117156101e857600080fd5b919080806020026020016040519081016040528093929190818152602001838360200280828437600081840152601f19601f8201169050808301925050505050505091929192905050506109a4565b005b34801561024557600080fd5b5061027c6004803603604081101561025c57600080fd5b810190808035906020019092919080359060200190929190505050610ddd565b005b34801561028a57600080fd5b50610364600480360360408110156102a157600080fd5b81019080803590602001906401000000008111156102be57600080fd5b8201836020820111156102d057600080fd5b803590602001918460018302840111640100000000831117156102f257600080fd5b91908080601f016020809104026020016040519081016040528093929190818152602001838380828437600081840152601f19601f820116905080830192505050505050509192919290803573ffffffffffffffffffffffffffffffffffffffff1690602001909291905050506111e5565b005b34801561037257600080fd5b5061039f6004803603602081101561038957600080fd5b81019080803590602001909291905050506113b5565b60405180806020018373ffffffffffffffffffffffffffffffffffffffff1673ffffffffffffffffffffffffffffffffffffffff168152602001828103825284818151815260200191508051906020019080838360005b838110156104115780820151818401526020810190506103f6565b50505050905090810190601f16801561043e5780820380516001836020036101000a031916815260200191505b50935050505060405180910390f35b34801561045957600080fd5b506104626114a0565b6040518082815260200191505060405180910390f35b34801561048457600080fd5b5061048d6114ad565b6040518082815260200191505060405180910390f35b3480156104af57600080fd5b506104b8611516565b604051808273ffffffffffffffffffffffffffffffffffffffff1673ffffffffffffffffffffffffffffffffffffffff16815260200191505060405180910390f35b34801561050657600080fd5b506105476004803603606081101561051d57600080fd5b8101908080359060200190929190803590602001909291908035906020019092919050505061159c565b604051808215151515815260200191505060405180910390f35b34801561056d57600080fd5b5061059a6004803603602081101561058457600080fd5b8101908080359060200190929190505050611762565b6040518082815260200191505060405180910390f35b3480156105bc57600080fd5b506105f3600480360360408110156105d357600080fd5b810190808035906020019092919080359060200190929190505050611842565b005b34801561060157600080fd5b506106346004803603602081101561061857600080fd5b81019080803563ffffffff169060200190929190505050611ea3565b604051808681526020018581526020018060200184815260200183600281111561065a57fe5b60ff168152602001828103825285818151815260200191508051906020019080838360005b8381101561069a57808201518184015260208101905061067f565b50505050905090810190601f1680156106c75780820380516001836020036101000a031916815260200191505b50965050505050505060405180910390f35b6107c6600480360360808110156106ef57600080fd5b810190808035906020019064010000000081111561070c57600080fd5b82018360208201111561071e57600080fd5b8035906020019184600183028401116401000000008311171561074057600080fd5b91908080601f016020809104026020016040519081016040528093929190818152602001838380828437600081840152601f19601f8201169050808301925050505050505091929192908035906020019092919080359060200190929190803573ffffffffffffffffffffffffffffffffffffffff16906020019092919050505061219c565b005b3480156107d457600080fd5b506107dd61245e565b6040518080602001828103825283818151815260200191508051906020019080838360005b8381101561081d578082015181840152602081019050610802565b50505050905090810190601f16801561084a5780820380516001836020036101000a031916815260200191505b509250505060405180910390f35b34801561086457600080fd5b506108a76004803603602081101561087b57600080fd5b81019080803573ffffffffffffffffffffffffffffffffffffffff1690602001909291905050506124fc565b6040518082815260200191505060405180910390f35b3480156108c957600080fd5b506108f6600480360360208110156108e057600080fd5b810190808035906020019092919050505061251a565b604051808373ffffffffffffffffffffffffffffffffffffffff1673ffffffffffffffffffffffffffffffffffffffff16815260200180602001828103825283818151815260200191508051906020019080838360005b8381101561096857808201518184015260208101905061094d565b50505050905090810190601f1680156109955780820380516001836020036101000a031916815260200191505b50935050505060405180910390f35b600260009054906101000a900473ffffffffffffffffffffffffffffffffffffffff1673ffffffffffffffffffffffffffffffffffffffff163373ffffffffffffffffffffffffffffffffffffffff16141515610a0057600080fd5b60968251101515610a1057600080fd5b60008090505b8251811015610dd85760006002811115610a2c57fe5b60008060038685815181101515610a3f57fe5b90602001906020020151815481101515610a5557fe5b9060005260206000200160009054906101000a900473ffffffffffffffffffffffffffffffffffffffff1673ffffffffffffffffffffffffffffffffffffffff1673ffffffffffffffffffffffffffffffffffffffff16815260200190815260200160002060010160008484815181101515610acd57fe5b90602001906020020151815260200190815260200160002060010160009054906101000a900460ff166002811115610b0157fe5b141515610b0d57610dcb565b600260008060038685815181101515610b2257fe5b90602001906020020151815481101515610b3857fe5b9060005260206000200160009054906101000a900473ffffffffffffffffffffffffffffffffffffffff1673ffffffffffffffffffffffffffffffffffffffff1673ffffffffffffffffffffffffffffffffffffffff16815260200190815260200160002060010160008484815181101515610bb057fe5b90602001906020020151815260200190815260200160002060010160006101000a81548160ff02191690836002811115610be657fe5b021790555060008060038584815181101515610bfe57fe5b90602001906020020151815481101515610c1457fe5b9060005260206000200160009054906101000a900473ffffffffffffffffffffffffffffffffffffffff1673ffffffffffffffffffffffffffffffffffffffff1673ffffffffffffffffffffffffffffffffffffffff16815260200190815260200160002060010160008383815181101515610c8c57fe5b90602001906020020151815260200190815260200160002060050160009054906101000a900473ffffffffffffffffffffffffffffffffffffffff1673ffffffffffffffffffffffffffffffffffffffff166108fc60008060038786815181101515610cf457fe5b90602001906020020151815481101515610d0a57fe5b9060005260206000200160009054906101000a900473ffffffffffffffffffffffffffffffffffffffff1673ffffffffffffffffffffffffffffffffffffffff1673ffffffffffffffffffffffffffffffffffffffff16815260200190815260200160002060010160008585815181101515610d8257fe5b906020019060200201518152602001908152602001600020600301549081150290604051600060405180830381858888f19350505050158015610dc9573d6000803e3d6000fd5b505b8080600101915050610a16565b505050565b60016002811115610dea57fe5b6000803373ffffffffffffffffffffffffffffffffffffffff1673ffffffffffffffffffffffffffffffffffffffff168152602001908152602001600020600101600084815260200190815260200160002060010160009054906101000a900460ff166002811115610e5857fe5b14151515610e6557600080fd5b806000803373ffffffffffffffffffffffffffffffffffffffff1673ffffffffffffffffffffffffffffffffffffffff168152602001908152602001600020600101600084815260200190815260200160002060020154111515610ec857600080fd5b6000803373ffffffffffffffffffffffffffffffffffffffff1673ffffffffffffffffffffffffffffffffffffffff168152602001908152602001600020600101600083815260200190815260200160002060050160149054906101000a900460ff16151515610f3757600080fd5b60016000803373ffffffffffffffffffffffffffffffffffffffff1673ffffffffffffffffffffffffffffffffffffffff168152602001908152602001600020600101600084815260200190815260200160002060010160006101000a81548160ff02191690836002811115610fa957fe5b021790555060016000803373ffffffffffffffffffffffffffffffffffffffff1673ffffffffffffffffffffffffffffffffffffffff168152602001908152602001600020600101600084815260200190815260200160002060050160146101000a81548160ff021916908315150217905550600060646000803373ffffffffffffffffffffffffffffffffffffffff1673ffffffffffffffffffffffffffffffffffffffff16815260200190815260200160002060010160008581526020019081526020016000206003015481151561107f57fe5b046000803373ffffffffffffffffffffffffffffffffffffffff1673ffffffffffffffffffffffffffffffffffffffff1681526020019081526020016000206001016000858152602001908152602001600020600301540390503373ffffffffffffffffffffffffffffffffffffffff166108fc829081150290604051600060405180830381858888f1935050505015801561111f573d6000803e3d6000fd5b50600260009054906101000a900473ffffffffffffffffffffffffffffffffffffffff1673ffffffffffffffffffffffffffffffffffffffff166108fc826000803373ffffffffffffffffffffffffffffffffffffffff1673ffffffffffffffffffffffffffffffffffffffff168152602001908152602001600020600101600087815260200190815260200160002060030154039081150290604051600060405180830381858888f193505050501580156111df573d6000803e3d6000fd5b50505050565b600260009054906101000a900473ffffffffffffffffffffffffffffffffffffffff1673ffffffffffffffffffffffffffffffffffffffff163373ffffffffffffffffffffffffffffffffffffffff1614151561124157600080fd5b600460008273ffffffffffffffffffffffffffffffffffffffff1673ffffffffffffffffffffffffffffffffffffffff16815260200190815260200160002060009054906101000a900460ff1615151561129a57600080fd5b6001600460008373ffffffffffffffffffffffffffffffffffffffff1673ffffffffffffffffffffffffffffffffffffffff16815260200190815260200160002060006101000a81548160ff021916908315150217905550600560408051908101604052808481526020018373ffffffffffffffffffffffffffffffffffffffff1681525090806001815401808255809150509060018203906000526020600020906002020160009091929091909150600082015181600001908051906020019061136692919061263a565b5060208201518160010160006101000a81548173ffffffffffffffffffffffffffffffffffffffff021916908373ffffffffffffffffffffffffffffffffffffffff1602179055505050505050565b6005818154811015156113c457fe5b9060005260206000209060020201600091509050806000018054600181600116156101000203166002900480601f0160208091040260200160405190810160405280929190818152602001828054600181600116156101000203166002900480156114705780601f1061144557610100808354040283529160200191611470565b820191906000526020600020905b81548152906001019060200180831161145357829003601f168201915b5050505050908060010160009054906101000a900473ffffffffffffffffffffffffffffffffffffffff16905082565b6000600580549050905090565b6000600260009054906101000a900473ffffffffffffffffffffffffffffffffffffffff1673ffffffffffffffffffffffffffffffffffffffff163373ffffffffffffffffffffffffffffffffffffffff1614151561150b57600080fd5b600380549050905090565b6000600260009054906101000a900473ffffffffffffffffffffffffffffffffffffffff1673ffffffffffffffffffffffffffffffffffffffff163373ffffffffffffffffffffffffffffffffffffffff1614151561157457600080fd5b600260009054906101000a900473ffffffffffffffffffffffffffffffffffffffff16905090565b6000600260009054906101000a900473ffffffffffffffffffffffffffffffffffffffff1673ffffffffffffffffffffffffffffffffffffffff163373ffffffffffffffffffffffffffffffffffffffff161415156115fa57600080fd5b8160008060038781548110151561160d57fe5b9060005260206000200160009054906101000a900473ffffffffffffffffffffffffffffffffffffffff1673ffffffffffffffffffffffffffffffffffffffff1673ffffffffffffffffffffffffffffffffffffffff16815260200190815260200160002060010160008581526020019081526020016000206002015410801561174857506000600281111561169f57fe5b6000806003878154811015156116b157fe5b9060005260206000200160009054906101000a900473ffffffffffffffffffffffffffffffffffffffff1673ffffffffffffffffffffffffffffffffffffffff1673ffffffffffffffffffffffffffffffffffffffff168152602001908152602001600020600101600085815260200190815260200160002060010160009054906101000a900460ff16600281111561174657fe5b145b15611756576001905061175b565b600090505b9392505050565b6000600260009054906101000a900473ffffffffffffffffffffffffffffffffffffffff1673ffffffffffffffffffffffffffffffffffffffff163373ffffffffffffffffffffffffffffffffffffffff161415156117c057600080fd5b6000806003848154811015156117d257fe5b9060005260206000200160009054906101000a900473ffffffffffffffffffffffffffffffffffffffff1673ffffffffffffffffffffffffffffffffffffffff1673ffffffffffffffffffffffffffffffffffffffff168152602001908152602001600020600001549050919050565b600260009054906101000a900473ffffffffffffffffffffffffffffffffffffffff1673ffffffffffffffffffffffffffffffffffffffff163373ffffffffffffffffffffffffffffffffffffffff1614151561189e57600080fd5b600080905060008090505b600380549050811015611e9d5760008090505b6000806003848154811015156118ce57fe5b9060005260206000200160009054906101000a900473ffffffffffffffffffffffffffffffffffffffff1673ffffffffffffffffffffffffffffffffffffffff1673ffffffffffffffffffffffffffffffffffffffff16815260200190815260200160002060000154811015611e8f578460008060038581548110151561195157fe5b9060005260206000200160009054906101000a900473ffffffffffffffffffffffffffffffffffffffff1673ffffffffffffffffffffffffffffffffffffffff1673ffffffffffffffffffffffffffffffffffffffff1681526020019081526020016000206001016000838152602001908152602001600020600201541015611e82576002808111156119e057fe5b6000806003858154811015156119f257fe5b9060005260206000200160009054906101000a900473ffffffffffffffffffffffffffffffffffffffff1673ffffffffffffffffffffffffffffffffffffffff1673ffffffffffffffffffffffffffffffffffffffff168152602001908152602001600020600101600083815260200190815260200160002060010160009054906101000a900460ff166002811115611a8757fe5b14158015611b47575060016002811115611a9d57fe5b600080600385815481101515611aaf57fe5b9060005260206000200160009054906101000a900473ffffffffffffffffffffffffffffffffffffffff1673ffffffffffffffffffffffffffffffffffffffff1673ffffffffffffffffffffffffffffffffffffffff168152602001908152602001600020600101600083815260200190815260200160002060010160009054906101000a900460ff166002811115611b4457fe5b14155b15611e815760046000806000600386815481101515611b6257fe5b9060005260206000200160009054906101000a900473ffffffffffffffffffffffffffffffffffffffff1673ffffffffffffffffffffffffffffffffffffffff1673ffffffffffffffffffffffffffffffffffffffff168152602001908152602001600020600101600084815260200190815260200160002060050160009054906101000a900473ffffffffffffffffffffffffffffffffffffffff1673ffffffffffffffffffffffffffffffffffffffff1673ffffffffffffffffffffffffffffffffffffffff16815260200190815260200160002060009054906101000a900460ff1615611e80576002600080600385815481101515611c6057fe5b9060005260206000200160009054906101000a900473ffffffffffffffffffffffffffffffffffffffff1673ffffffffffffffffffffffffffffffffffffffff1673ffffffffffffffffffffffffffffffffffffffff168152602001908152602001600020600101600083815260200190815260200160002060010160006101000a81548160ff02191690836002811115611cf757fe5b0217905550600080600384815481101515611d0e57fe5b9060005260206000200160009054906101000a900473ffffffffffffffffffffffffffffffffffffffff1673ffffffffffffffffffffffffffffffffffffffff1673ffffffffffffffffffffffffffffffffffffffff168152602001908152602001600020600101600082815260200190815260200160002060050160009054906101000a900473ffffffffffffffffffffffffffffffffffffffff1673ffffffffffffffffffffffffffffffffffffffff166108fc600080600386815481101515611dd657fe5b9060005260206000200160009054906101000a900473ffffffffffffffffffffffffffffffffffffffff1673ffffffffffffffffffffffffffffffffffffffff1673ffffffffffffffffffffffffffffffffffffffff1681526020019081526020016000206001016000848152602001908152602001600020600301549081150290604051600060405180830381858888f19350505050158015611e7e573d6000803e3d6000fd5b505b5b5b80806001019150506118bc565b5080806001019150506118a9565b50505050565b600080606060008060008060003373ffffffffffffffffffffffffffffffffffffffff1673ffffffffffffffffffffffffffffffffffffffff16815260200190815260200160002060010160008863ffffffff16815260200190815260200160002060020154111515611f1557600080fd5b6000803373ffffffffffffffffffffffffffffffffffffffff1673ffffffffffffffffffffffffffffffffffffffff16815260200190815260200160002060010160008763ffffffff168152602001908152602001600020600201546000803373ffffffffffffffffffffffffffffffffffffffff1673ffffffffffffffffffffffffffffffffffffffff16815260200190815260200160002060010160008863ffffffff168152602001908152602001600020600401546000803373ffffffffffffffffffffffffffffffffffffffff1673ffffffffffffffffffffffffffffffffffffffff16815260200190815260200160002060010160008963ffffffff1681526020019081526020016000206000016000803373ffffffffffffffffffffffffffffffffffffffff1673ffffffffffffffffffffffffffffffffffffffff16815260200190815260200160002060010160008a63ffffffff168152602001908152602001600020600301546000803373ffffffffffffffffffffffffffffffffffffffff1673ffffffffffffffffffffffffffffffffffffffff16815260200190815260200160002060010160008b63ffffffff16815260200190815260200160002060010160009054906101000a900460ff16828054600181600116156101000203166002900480601f0160208091040260200160405190810160405280929190818152602001828054600181600116156101000203166002900480156121825780601f1061215757610100808354040283529160200191612182565b820191906000526020600020905b81548152906001019060200180831161216557829003601f168201915b505050505092509450945094509450945091939590929450565b60008060003373ffffffffffffffffffffffffffffffffffffffff1673ffffffffffffffffffffffffffffffffffffffff16815260200190815260200160002060000154141561224d5760033390806001815401808255809150509060018203906000526020600020016000909192909190916101000a81548173ffffffffffffffffffffffffffffffffffffffff021916908373ffffffffffffffffffffffffffffffffffffffff160217905550505b60e0604051908101604052808581526020016000600281111561226c57fe5b81526020018481526020013481526020018381526020018273ffffffffffffffffffffffffffffffffffffffff168152602001600015158152506000803373ffffffffffffffffffffffffffffffffffffffff1673ffffffffffffffffffffffffffffffffffffffff16815260200190815260200160002060010160008060003373ffffffffffffffffffffffffffffffffffffffff1673ffffffffffffffffffffffffffffffffffffffff168152602001908152602001600020600001548152602001908152602001600020600082015181600001908051906020019061235592919061263a565b5060208201518160010160006101000a81548160ff0219169083600281111561237a57fe5b021790555060408201518160020155606082015181600301556080820151816004015560a08201518160050160006101000a81548173ffffffffffffffffffffffffffffffffffffffff021916908373ffffffffffffffffffffffffffffffffffffffff16021790555060c08201518160050160146101000a81548160ff0219169083151502179055509050506000803373ffffffffffffffffffffffffffffffffffffffff1673ffffffffffffffffffffffffffffffffffffffff1681526020019081526020016000206000016000815480929190600101919050555050505050565b60018054600181600116156101000203166002900480601f0160208091040260200160405190810160405280929190818152602001828054600181600116156101000203166002900480156124f45780601f106124c9576101008083540402835291602001916124f4565b820191906000526020600020905b8154815290600101906020018083116124d757829003601f168201915b505050505081565b60006020528060005260406000206000915090508060000154905081565b600060606005805490508310151561253157600080fd5b60058381548110151561254057fe5b906000526020600020906002020160010160009054906101000a900473ffffffffffffffffffffffffffffffffffffffff1660058481548110151561258157fe5b9060005260206000209060020201600001819150808054600181600116156101000203166002900480601f01602080910402602001604051908101604052809291908181526020018280546001816001161561010002031660029004801561262a5780601f106125ff5761010080835404028352916020019161262a565b820191906000526020600020905b81548152906001019060200180831161260d57829003601f168201915b5050505050905091509150915091565b828054600181600116156101000203166002900490600052602060002090601f016020900481019282601f1061267b57805160ff19168380011785556126a9565b828001600101855582156126a9579182015b828111156126a857825182559160200191906001019061268d565b5b5090506126b691906126ba565b5090565b6126dc91905b808211156126d85760008160009055506001016126c0565b5090565b9056fea165627a7a72305820c3ed1a39c7353cc39bb435306c2128806f01ebeb9a9e372b5622deb92a6abb550029",
  "source": "pragma solidity ^0.5.0;\n\ncontract Tasks {\n    enum Status {Pending, Completed, Failed }\n    \n    struct Task {\n        string desc;\n        Status status;\n        uint timelimit;\n        uint amount;\n        uint timestart;\n        address payable charity;\n        bool paid;\n    }\n\n    struct Pledger {\n        uint taskCount;\n        mapping(uint => Task) taskList;\n    }\n\n    struct Charity {\n        string name;\n        address payable charity;\n    }\n\n    mapping (address => Pledger) public Pledgers;\n    string public tasks;\n    address payable owner;\n    address[] users;\n    mapping (address => bool ) charities;\n    Charity[] public Charities;\n    \n    constructor () public {\n        owner = msg.sender;\n    }\n    \n    function addTask(string memory desc, uint end_time, uint start_time, address payable charity) public payable {\n        // TODO: Add check for the value of address (it must exist in the charities mapping)\n        // TODO: check the end_time and the start_time\n        if(Pledgers[msg.sender].taskCount == 0){\n            users.push(msg.sender);\n        }\n        Pledgers[msg.sender].taskList[Pledgers[msg.sender].taskCount] = Task(desc, Status.Pending, end_time, msg.value, start_time, charity, false);\n        Pledgers[msg.sender].taskCount++;\n    }\n\n    function showTask(uint32 taskid) public view returns (uint, uint, string memory, uint, Tasks.Status) {\n        require(Pledgers[msg.sender].taskList[taskid].timelimit > 0);\n\n        return (\n            Pledgers[msg.sender].taskList[taskid].timelimit,\n            Pledgers[msg.sender].taskList[taskid].timestart,\n            Pledgers[msg.sender].taskList[taskid].desc,\n            Pledgers[msg.sender].taskList[taskid].amount,\n            Pledgers[msg.sender].taskList[taskid].status\n        );\n    }\n\n    // change the task status to completed\n    // Send the user the amount they put in as pledge minus 1%\n    function completeTask(uint taskid, uint timelimit) public {\n        require(Pledgers[msg.sender].taskList[taskid].status != Status.Completed);\n        require(Pledgers[msg.sender].taskList[taskid].timelimit > timelimit);\n        require(!Pledgers[msg.sender].taskList[taskid].paid);\n\n        Pledgers[msg.sender].taskList[taskid].status = Status.Completed;\n        Pledgers[msg.sender].taskList[taskid].paid = true;\n        uint back_amount = Pledgers[msg.sender].taskList[taskid].amount - Pledgers[msg.sender].taskList[taskid].amount / 100;\n        msg.sender.transfer(back_amount);\n        owner.transfer(Pledgers[msg.sender].taskList[taskid].amount - back_amount);\n    }\n\n    // The owner scan all the failed task and send them to a given charity\n    // TODO: This is the worst function of the all contract, change it to someting that is more managable\n    function sendToCharity(uint time_now, uint rand) public restricted {\n        uint charity_amount = 0;\n        for(uint i=0; i < users.length; i++){\n            for(uint j=0; j< Pledgers[users[i]].taskCount; j++){\n                if(Pledgers[users[i]].taskList[j].timelimit < time_now){\n                    if(Pledgers[users[i]].taskList[j].status != Status.Failed && Pledgers[users[i]].taskList[j].status != Status.Completed){\n                        if(charities[Pledgers[users[i]].taskList[j].charity]){\n                            Pledgers[users[i]].taskList[j].status = Status.Failed;\n                            Pledgers[users[i]].taskList[j].charity.transfer(Pledgers[users[i]].taskList[j].amount);\n                        }\n                    }\n                }\n            }\n        }\n    }\n\n    function getUsersLength() public view restricted returns (uint) {\n        return users.length;\n    }\n\n    function getUserTasksLength(uint userid) public view restricted returns (uint) {\n        return Pledgers[users[userid]].taskCount;\n    }\n\n    function isTaskStateFailed(uint userid, uint taskid, uint time_now) public view restricted returns (bool) {\n        if(Pledgers[users[userid]].taskList[taskid].timelimit < time_now && Pledgers[users[userid]].taskList[taskid].status == Status.Pending) {\n            return true;\n        }\n        return false;\n    }\n\n    function payCharities(uint[] memory userids, uint[] memory taskids) public restricted {\n        require(userids.length < 150);\n        for(uint i=0; i< userids.length; i++){\n            if(Pledgers[users[userids[i]]].taskList[taskids[i]].status != Status.Pending){\n                continue;\n            }\n            Pledgers[users[userids[i]]].taskList[taskids[i]].status = Status.Failed;\n            Pledgers[users[userids[i]]].taskList[taskids[i]].charity.transfer(Pledgers[users[userids[i]]].taskList[taskids[i]].amount);\n        }\n    }\n\n    // add a new charity to the list of charity\n    function addCharity(string memory name, address payable charity) public restricted {\n        require(!charities[charity]);\n        charities[charity] = true;\n        Charities.push(Charity(name, charity));\n    }\n\n    function getCharitiesLength() public view returns (uint) {\n        return Charities.length;\n    }\n\n    function getCharity(uint index) public view returns (address, string memory) {\n        require(index < Charities.length);\n        return (Charities[index].charity, Charities[index].name); \n    }\n\n    // Get the address of the owner\n    function getOwner() restricted public view returns (address) {\n        return owner;\n    }\n\n    modifier restricted {\n        require(msg.sender == owner);\n        _;\n    }\n\n}",
  "sourcePath": "H:/projects/proofwk-react/contracts/Tasks.sol",
  "compiler": {
    "name": "solc",
    "version": "0.5.0+commit.1d4f565a.Emscripten.clang"
  },
  "schemaVersion": "3.0.6",
  "updatedAt": "2019-04-18T07:42:27.713Z",
  "devdoc": {
    "methods": {}
  },
  "userdoc": {
    "methods": {}
  }
}