{
  "contractName": "Tasks",
  "abi": [
    {
      "constant": true,
      "inputs": [
        {
          "name": "",
          "type": "uint256"
        }
      ],
      "name": "Charities",
      "outputs": [
        {
          "name": "name",
          "type": "string"
        },
        {
          "name": "charity",
          "type": "address"
        }
      ],
      "payable": false,
      "stateMutability": "view",
      "type": "function",
      "signature": "0x32d3c76a"
    },
    {
      "constant": true,
      "inputs": [],
      "name": "tasks",
      "outputs": [
        {
          "name": "",
          "type": "string"
        }
      ],
      "payable": false,
      "stateMutability": "view",
      "type": "function",
      "signature": "0xc305a6d9"
    },
    {
      "constant": true,
      "inputs": [
        {
          "name": "",
          "type": "address"
        }
      ],
      "name": "Pledgers",
      "outputs": [
        {
          "name": "taskCount",
          "type": "uint256"
        }
      ],
      "payable": false,
      "stateMutability": "view",
      "type": "function",
      "signature": "0xe10a9448"
    },
    {
      "inputs": [],
      "payable": false,
      "stateMutability": "nonpayable",
      "type": "constructor",
      "signature": "constructor"
    },
    {
      "constant": false,
      "inputs": [
        {
          "name": "desc",
          "type": "string"
        },
        {
          "name": "end_time",
          "type": "uint256"
        },
        {
          "name": "start_time",
          "type": "uint256"
        },
        {
          "name": "charity",
          "type": "address"
        }
      ],
      "name": "addTask",
      "outputs": [],
      "payable": true,
      "stateMutability": "payable",
      "type": "function",
      "signature": "0xa919057c"
    },
    {
      "constant": true,
      "inputs": [
        {
          "name": "taskid",
          "type": "uint32"
        }
      ],
      "name": "showTask",
      "outputs": [
        {
          "name": "",
          "type": "uint256"
        },
        {
          "name": "",
          "type": "uint256"
        },
        {
          "name": "",
          "type": "string"
        },
        {
          "name": "",
          "type": "uint256"
        },
        {
          "name": "",
          "type": "uint8"
        }
      ],
      "payable": false,
      "stateMutability": "view",
      "type": "function",
      "signature": "0x92ab8d93"
    },
    {
      "constant": false,
      "inputs": [
        {
          "name": "taskid",
          "type": "uint256"
        },
        {
          "name": "timelimit",
          "type": "uint256"
        }
      ],
      "name": "completeTask",
      "outputs": [],
      "payable": false,
      "stateMutability": "nonpayable",
      "type": "function",
      "signature": "0x108c8ae4"
    },
    {
      "constant": true,
      "inputs": [],
      "name": "getUsersLength",
      "outputs": [
        {
          "name": "",
          "type": "uint256"
        }
      ],
      "payable": false,
      "stateMutability": "view",
      "type": "function",
      "signature": "0x595b1a3e"
    },
    {
      "constant": true,
      "inputs": [
        {
          "name": "userid",
          "type": "uint256"
        }
      ],
      "name": "getUserTasksLength",
      "outputs": [
        {
          "name": "",
          "type": "uint256"
        }
      ],
      "payable": false,
      "stateMutability": "view",
      "type": "function",
      "signature": "0x8fca5de0"
    },
    {
      "constant": true,
      "inputs": [
        {
          "name": "userid",
          "type": "uint256"
        },
        {
          "name": "taskid",
          "type": "uint256"
        },
        {
          "name": "time_now",
          "type": "uint256"
        }
      ],
      "name": "isTaskStateFailed",
      "outputs": [
        {
          "name": "",
          "type": "bool"
        }
      ],
      "payable": false,
      "stateMutability": "view",
      "type": "function",
      "signature": "0x89a1101c"
    },
    {
      "constant": false,
      "inputs": [
        {
          "name": "userids",
          "type": "uint256[]"
        },
        {
          "name": "taskids",
          "type": "uint256[]"
        }
      ],
      "name": "payCharities",
      "outputs": [],
      "payable": false,
      "stateMutability": "nonpayable",
      "type": "function",
      "signature": "0x0c00d178"
    },
    {
      "constant": false,
      "inputs": [
        {
          "name": "name",
          "type": "string"
        },
        {
          "name": "charity",
          "type": "address"
        }
      ],
      "name": "addCharity",
      "outputs": [],
      "payable": false,
      "stateMutability": "nonpayable",
      "type": "function",
      "signature": "0x1ab91517"
    },
    {
      "constant": true,
      "inputs": [],
      "name": "getCharitiesLength",
      "outputs": [
        {
          "name": "",
          "type": "uint256"
        }
      ],
      "payable": false,
      "stateMutability": "view",
      "type": "function",
      "signature": "0x521d79d5"
    },
    {
      "constant": true,
      "inputs": [
        {
          "name": "index",
          "type": "uint256"
        }
      ],
      "name": "getCharity",
      "outputs": [
        {
          "name": "",
          "type": "address"
        },
        {
          "name": "",
          "type": "string"
        }
      ],
      "payable": false,
      "stateMutability": "view",
      "type": "function",
      "signature": "0xfd67db81"
    },
    {
      "constant": true,
      "inputs": [],
      "name": "getOwner",
      "outputs": [
        {
          "name": "",
          "type": "address"
        }
      ],
      "payable": false,
      "stateMutability": "view",
      "type": "function",
      "signature": "0x893d20e8"
    }
  ],
  "bytecode": "0x608060405234801561001057600080fd5b5033600260006101000a81548173ffffffffffffffffffffffffffffffffffffffff021916908373ffffffffffffffffffffffffffffffffffffffff160217905550611f54806100616000396000f3fe6080604052600436106100d0576000357c0100000000000000000000000000000000000000000000000000000000900463ffffffff1680630c00d178146100d5578063108c8ae41461022e5780631ab915171461027357806332d3c76a1461035b578063521d79d514610442578063595b1a3e1461046d578063893d20e81461049857806389a1101c146104ef5780638fca5de01461055657806392ab8d93146105a5578063a919057c14610689578063c305a6d914610778578063e10a944814610808578063fd67db811461086d575b600080fd5b3480156100e157600080fd5b5061022c600480360360408110156100f857600080fd5b810190808035906020019064010000000081111561011557600080fd5b82018360208201111561012757600080fd5b8035906020019184602083028401116401000000008311171561014957600080fd5b919080806020026020016040519081016040528093929190818152602001838360200280828437600081840152601f19601f820116905080830192505050505050509192919290803590602001906401000000008111156101a957600080fd5b8201836020820111156101bb57600080fd5b803590602001918460208302840111640100000000831117156101dd57600080fd5b919080806020026020016040519081016040528093929190818152602001838360200280828437600081840152601f19601f820116905080830192505050505050509192919290505050610954565b005b34801561023a57600080fd5b506102716004803603604081101561025157600080fd5b810190808035906020019092919080359060200190929190505050610d8d565b005b34801561027f57600080fd5b506103596004803603604081101561029657600080fd5b81019080803590602001906401000000008111156102b357600080fd5b8201836020820111156102c557600080fd5b803590602001918460018302840111640100000000831117156102e757600080fd5b91908080601f016020809104026020016040519081016040528093929190818152602001838380828437600081840152601f19601f820116905080830192505050505050509192919290803573ffffffffffffffffffffffffffffffffffffffff1690602001909291905050506110b8565b005b34801561036757600080fd5b506103946004803603602081101561037e57600080fd5b8101908080359060200190929190505050611288565b60405180806020018373ffffffffffffffffffffffffffffffffffffffff1673ffffffffffffffffffffffffffffffffffffffff168152602001828103825284818151815260200191508051906020019080838360005b838110156104065780820151818401526020810190506103eb565b50505050905090810190601f1680156104335780820380516001836020036101000a031916815260200191505b50935050505060405180910390f35b34801561044e57600080fd5b50610457611373565b6040518082815260200191505060405180910390f35b34801561047957600080fd5b50610482611380565b6040518082815260200191505060405180910390f35b3480156104a457600080fd5b506104ad6113e9565b604051808273ffffffffffffffffffffffffffffffffffffffff1673ffffffffffffffffffffffffffffffffffffffff16815260200191505060405180910390f35b3480156104fb57600080fd5b5061053c6004803603606081101561051257600080fd5b8101908080359060200190929190803590602001909291908035906020019092919050505061146f565b604051808215151515815260200191505060405180910390f35b34801561056257600080fd5b5061058f6004803603602081101561057957600080fd5b8101908080359060200190929190505050611635565b6040518082815260200191505060405180910390f35b3480156105b157600080fd5b506105e4600480360360208110156105c857600080fd5b81019080803563ffffffff169060200190929190505050611715565b604051808681526020018581526020018060200184815260200183600281111561060a57fe5b60ff168152602001828103825285818151815260200191508051906020019080838360005b8381101561064a57808201518184015260208101905061062f565b50505050905090810190601f1680156106775780820380516001836020036101000a031916815260200191505b50965050505050505060405180910390f35b6107766004803603608081101561069f57600080fd5b81019080803590602001906401000000008111156106bc57600080fd5b8201836020820111156106ce57600080fd5b803590602001918460018302840111640100000000831117156106f057600080fd5b91908080601f016020809104026020016040519081016040528093929190818152602001838380828437600081840152601f19601f8201169050808301925050505050505091929192908035906020019092919080359060200190929190803573ffffffffffffffffffffffffffffffffffffffff169060200190929190505050611a0e565b005b34801561078457600080fd5b5061078d611ca7565b6040518080602001828103825283818151815260200191508051906020019080838360005b838110156107cd5780820151818401526020810190506107b2565b50505050905090810190601f1680156107fa5780820380516001836020036101000a031916815260200191505b509250505060405180910390f35b34801561081457600080fd5b506108576004803603602081101561082b57600080fd5b81019080803573ffffffffffffffffffffffffffffffffffffffff169060200190929190505050611d45565b6040518082815260200191505060405180910390f35b34801561087957600080fd5b506108a66004803603602081101561089057600080fd5b8101908080359060200190929190505050611d63565b604051808373ffffffffffffffffffffffffffffffffffffffff1673ffffffffffffffffffffffffffffffffffffffff16815260200180602001828103825283818151815260200191508051906020019080838360005b838110156109185780820151818401526020810190506108fd565b50505050905090810190601f1680156109455780820380516001836020036101000a031916815260200191505b50935050505060405180910390f35b600260009054906101000a900473ffffffffffffffffffffffffffffffffffffffff1673ffffffffffffffffffffffffffffffffffffffff163373ffffffffffffffffffffffffffffffffffffffff161415156109b057600080fd5b609682511015156109c057600080fd5b60008090505b8251811015610d8857600060028111156109dc57fe5b600080600386858151811015156109ef57fe5b90602001906020020151815481101515610a0557fe5b9060005260206000200160009054906101000a900473ffffffffffffffffffffffffffffffffffffffff1673ffffffffffffffffffffffffffffffffffffffff1673ffffffffffffffffffffffffffffffffffffffff16815260200190815260200160002060010160008484815181101515610a7d57fe5b90602001906020020151815260200190815260200160002060010160009054906101000a900460ff166002811115610ab157fe5b141515610abd57610d7b565b600260008060038685815181101515610ad257fe5b90602001906020020151815481101515610ae857fe5b9060005260206000200160009054906101000a900473ffffffffffffffffffffffffffffffffffffffff1673ffffffffffffffffffffffffffffffffffffffff1673ffffffffffffffffffffffffffffffffffffffff16815260200190815260200160002060010160008484815181101515610b6057fe5b90602001906020020151815260200190815260200160002060010160006101000a81548160ff02191690836002811115610b9657fe5b021790555060008060038584815181101515610bae57fe5b90602001906020020151815481101515610bc457fe5b9060005260206000200160009054906101000a900473ffffffffffffffffffffffffffffffffffffffff1673ffffffffffffffffffffffffffffffffffffffff1673ffffffffffffffffffffffffffffffffffffffff16815260200190815260200160002060010160008383815181101515610c3c57fe5b90602001906020020151815260200190815260200160002060050160009054906101000a900473ffffffffffffffffffffffffffffffffffffffff1673ffffffffffffffffffffffffffffffffffffffff166108fc60008060038786815181101515610ca457fe5b90602001906020020151815481101515610cba57fe5b9060005260206000200160009054906101000a900473ffffffffffffffffffffffffffffffffffffffff1673ffffffffffffffffffffffffffffffffffffffff1673ffffffffffffffffffffffffffffffffffffffff16815260200190815260200160002060010160008585815181101515610d3257fe5b906020019060200201518152602001908152602001600020600301549081150290604051600060405180830381858888f19350505050158015610d79573d6000803e3d6000fd5b505b80806001019150506109c6565b505050565b60016002811115610d9a57fe5b6000803373ffffffffffffffffffffffffffffffffffffffff1673ffffffffffffffffffffffffffffffffffffffff168152602001908152602001600020600101600084815260200190815260200160002060010160009054906101000a900460ff166002811115610e0857fe5b14151515610e1557600080fd5b806000803373ffffffffffffffffffffffffffffffffffffffff1673ffffffffffffffffffffffffffffffffffffffff168152602001908152602001600020600101600084815260200190815260200160002060020154111515610e7857600080fd5b60016000803373ffffffffffffffffffffffffffffffffffffffff1673ffffffffffffffffffffffffffffffffffffffff168152602001908152602001600020600101600084815260200190815260200160002060010160006101000a81548160ff02191690836002811115610eea57fe5b0217905550600060646000803373ffffffffffffffffffffffffffffffffffffffff1673ffffffffffffffffffffffffffffffffffffffff168152602001908152602001600020600101600085815260200190815260200160002060030154811515610f5257fe5b046000803373ffffffffffffffffffffffffffffffffffffffff1673ffffffffffffffffffffffffffffffffffffffff1681526020019081526020016000206001016000858152602001908152602001600020600301540390503373ffffffffffffffffffffffffffffffffffffffff166108fc829081150290604051600060405180830381858888f19350505050158015610ff2573d6000803e3d6000fd5b50600260009054906101000a900473ffffffffffffffffffffffffffffffffffffffff1673ffffffffffffffffffffffffffffffffffffffff166108fc826000803373ffffffffffffffffffffffffffffffffffffffff1673ffffffffffffffffffffffffffffffffffffffff168152602001908152602001600020600101600087815260200190815260200160002060030154039081150290604051600060405180830381858888f193505050501580156110b2573d6000803e3d6000fd5b50505050565b600260009054906101000a900473ffffffffffffffffffffffffffffffffffffffff1673ffffffffffffffffffffffffffffffffffffffff163373ffffffffffffffffffffffffffffffffffffffff1614151561111457600080fd5b600460008273ffffffffffffffffffffffffffffffffffffffff1673ffffffffffffffffffffffffffffffffffffffff16815260200190815260200160002060009054906101000a900460ff1615151561116d57600080fd5b6001600460008373ffffffffffffffffffffffffffffffffffffffff1673ffffffffffffffffffffffffffffffffffffffff16815260200190815260200160002060006101000a81548160ff021916908315150217905550600560408051908101604052808481526020018373ffffffffffffffffffffffffffffffffffffffff16815250908060018154018082558091505090600182039060005260206000209060020201600090919290919091506000820151816000019080519060200190611239929190611e83565b5060208201518160010160006101000a81548173ffffffffffffffffffffffffffffffffffffffff021916908373ffffffffffffffffffffffffffffffffffffffff1602179055505050505050565b60058181548110151561129757fe5b9060005260206000209060020201600091509050806000018054600181600116156101000203166002900480601f0160208091040260200160405190810160405280929190818152602001828054600181600116156101000203166002900480156113435780601f1061131857610100808354040283529160200191611343565b820191906000526020600020905b81548152906001019060200180831161132657829003601f168201915b5050505050908060010160009054906101000a900473ffffffffffffffffffffffffffffffffffffffff16905082565b6000600580549050905090565b6000600260009054906101000a900473ffffffffffffffffffffffffffffffffffffffff1673ffffffffffffffffffffffffffffffffffffffff163373ffffffffffffffffffffffffffffffffffffffff161415156113de57600080fd5b600380549050905090565b6000600260009054906101000a900473ffffffffffffffffffffffffffffffffffffffff1673ffffffffffffffffffffffffffffffffffffffff163373ffffffffffffffffffffffffffffffffffffffff1614151561144757600080fd5b600260009054906101000a900473ffffffffffffffffffffffffffffffffffffffff16905090565b6000600260009054906101000a900473ffffffffffffffffffffffffffffffffffffffff1673ffffffffffffffffffffffffffffffffffffffff163373ffffffffffffffffffffffffffffffffffffffff161415156114cd57600080fd5b816000806003878154811015156114e057fe5b9060005260206000200160009054906101000a900473ffffffffffffffffffffffffffffffffffffffff1673ffffffffffffffffffffffffffffffffffffffff1673ffffffffffffffffffffffffffffffffffffffff16815260200190815260200160002060010160008581526020019081526020016000206002015410801561161b57506000600281111561157257fe5b60008060038781548110151561158457fe5b9060005260206000200160009054906101000a900473ffffffffffffffffffffffffffffffffffffffff1673ffffffffffffffffffffffffffffffffffffffff1673ffffffffffffffffffffffffffffffffffffffff168152602001908152602001600020600101600085815260200190815260200160002060010160009054906101000a900460ff16600281111561161957fe5b145b15611629576001905061162e565b600090505b9392505050565b6000600260009054906101000a900473ffffffffffffffffffffffffffffffffffffffff1673ffffffffffffffffffffffffffffffffffffffff163373ffffffffffffffffffffffffffffffffffffffff1614151561169357600080fd5b6000806003848154811015156116a557fe5b9060005260206000200160009054906101000a900473ffffffffffffffffffffffffffffffffffffffff1673ffffffffffffffffffffffffffffffffffffffff1673ffffffffffffffffffffffffffffffffffffffff168152602001908152602001600020600001549050919050565b600080606060008060008060003373ffffffffffffffffffffffffffffffffffffffff1673ffffffffffffffffffffffffffffffffffffffff16815260200190815260200160002060010160008863ffffffff1681526020019081526020016000206002015411151561178757600080fd5b6000803373ffffffffffffffffffffffffffffffffffffffff1673ffffffffffffffffffffffffffffffffffffffff16815260200190815260200160002060010160008763ffffffff168152602001908152602001600020600201546000803373ffffffffffffffffffffffffffffffffffffffff1673ffffffffffffffffffffffffffffffffffffffff16815260200190815260200160002060010160008863ffffffff168152602001908152602001600020600401546000803373ffffffffffffffffffffffffffffffffffffffff1673ffffffffffffffffffffffffffffffffffffffff16815260200190815260200160002060010160008963ffffffff1681526020019081526020016000206000016000803373ffffffffffffffffffffffffffffffffffffffff1673ffffffffffffffffffffffffffffffffffffffff16815260200190815260200160002060010160008a63ffffffff168152602001908152602001600020600301546000803373ffffffffffffffffffffffffffffffffffffffff1673ffffffffffffffffffffffffffffffffffffffff16815260200190815260200160002060010160008b63ffffffff16815260200190815260200160002060010160009054906101000a900460ff16828054600181600116156101000203166002900480601f0160208091040260200160405190810160405280929190818152602001828054600181600116156101000203166002900480156119f45780601f106119c9576101008083540402835291602001916119f4565b820191906000526020600020905b8154815290600101906020018083116119d757829003601f168201915b505050505092509450945094509450945091939590929450565b60008060003373ffffffffffffffffffffffffffffffffffffffff1673ffffffffffffffffffffffffffffffffffffffff168152602001908152602001600020600001541415611abf5760033390806001815401808255809150509060018203906000526020600020016000909192909190916101000a81548173ffffffffffffffffffffffffffffffffffffffff021916908373ffffffffffffffffffffffffffffffffffffffff160217905550505b60c06040519081016040528085815260200160006002811115611ade57fe5b81526020018481526020013481526020018381526020018273ffffffffffffffffffffffffffffffffffffffff168152506000803373ffffffffffffffffffffffffffffffffffffffff1673ffffffffffffffffffffffffffffffffffffffff16815260200190815260200160002060010160008060003373ffffffffffffffffffffffffffffffffffffffff1673ffffffffffffffffffffffffffffffffffffffff1681526020019081526020016000206000015481526020019081526020016000206000820151816000019080519060200190611bbe929190611e83565b5060208201518160010160006101000a81548160ff02191690836002811115611be357fe5b021790555060408201518160020155606082015181600301556080820151816004015560a08201518160050160006101000a81548173ffffffffffffffffffffffffffffffffffffffff021916908373ffffffffffffffffffffffffffffffffffffffff1602179055509050506000803373ffffffffffffffffffffffffffffffffffffffff1673ffffffffffffffffffffffffffffffffffffffff1681526020019081526020016000206000016000815480929190600101919050555050505050565b60018054600181600116156101000203166002900480601f016020809104026020016040519081016040528092919081815260200182805460018160011615610100020316600290048015611d3d5780601f10611d1257610100808354040283529160200191611d3d565b820191906000526020600020905b815481529060010190602001808311611d2057829003601f168201915b505050505081565b60006020528060005260406000206000915090508060000154905081565b6000606060058054905083101515611d7a57600080fd5b600583815481101515611d8957fe5b906000526020600020906002020160010160009054906101000a900473ffffffffffffffffffffffffffffffffffffffff16600584815481101515611dca57fe5b9060005260206000209060020201600001819150808054600181600116156101000203166002900480601f016020809104026020016040519081016040528092919081815260200182805460018160011615610100020316600290048015611e735780601f10611e4857610100808354040283529160200191611e73565b820191906000526020600020905b815481529060010190602001808311611e5657829003601f168201915b5050505050905091509150915091565b828054600181600116156101000203166002900490600052602060002090601f016020900481019282601f10611ec457805160ff1916838001178555611ef2565b82800160010185558215611ef2579182015b82811115611ef1578251825591602001919060010190611ed6565b5b509050611eff9190611f03565b5090565b611f2591905b80821115611f21576000816000905550600101611f09565b5090565b9056fea165627a7a72305820fa6a7be538e17b38fc01849f01abfbbb16b1893d34835ce6c44bb209a43426b00029",
  "source": "pragma solidity ^0.5.0;\n\ncontract Tasks {\n    enum Status {Pending, Completed, Failed }\n    \n    struct Task {\n        string desc;\n        Status status;\n        uint timelimit;\n        uint amount;\n        uint timestart;\n        address payable charity;\n    }\n\n    struct Pledger {\n        uint taskCount;\n        mapping(uint => Task) taskList;\n    }\n\n    struct Charity {\n        string name;\n        address payable charity;\n    }\n\n    mapping (address => Pledger) public Pledgers;\n    string public tasks;\n    address payable owner;\n    address[] users;\n    mapping (address => bool ) charities;\n    Charity[] public Charities;\n    \n    constructor () public {\n        owner = msg.sender;\n    }\n    \n    function addTask(string memory desc, uint end_time, uint start_time, address payable charity) public payable {\n        // TODO: Add check for the value of address (it must exist in the charities mapping)\n        // TODO: check the end_time and the start_time\n        if(Pledgers[msg.sender].taskCount == 0){\n            users.push(msg.sender);\n        }\n        Pledgers[msg.sender].taskList[Pledgers[msg.sender].taskCount] = Task(desc, Status.Pending, end_time, msg.value, start_time, charity);\n        Pledgers[msg.sender].taskCount++;\n    }\n\n    function showTask(uint32 taskid) public view returns (uint, uint, string memory, uint, Tasks.Status) {\n        require(Pledgers[msg.sender].taskList[taskid].timelimit > 0);\n\n        return (\n            Pledgers[msg.sender].taskList[taskid].timelimit,\n            Pledgers[msg.sender].taskList[taskid].timestart,\n            Pledgers[msg.sender].taskList[taskid].desc,\n            Pledgers[msg.sender].taskList[taskid].amount,\n            Pledgers[msg.sender].taskList[taskid].status\n        );\n    }\n\n    // change the task status to completed\n    // Send the user the amount they put in as pledge minus 1%\n    function completeTask(uint taskid, uint timelimit) public {\n        require(Pledgers[msg.sender].taskList[taskid].status != Status.Completed);\n        require(Pledgers[msg.sender].taskList[taskid].timelimit > timelimit);\n\n        Pledgers[msg.sender].taskList[taskid].status = Status.Completed;\n        uint back_amount = Pledgers[msg.sender].taskList[taskid].amount - Pledgers[msg.sender].taskList[taskid].amount / 100;\n        msg.sender.transfer(back_amount);\n        owner.transfer(Pledgers[msg.sender].taskList[taskid].amount - back_amount);\n    }\n\n    function getUsersLength() public view restricted returns (uint) {\n        return users.length;\n    }\n\n    function getUserTasksLength(uint userid) public view restricted returns (uint) {\n        return Pledgers[users[userid]].taskCount;\n    }\n\n    function isTaskStateFailed(uint userid, uint taskid, uint time_now) public view restricted returns (bool) {\n        if(Pledgers[users[userid]].taskList[taskid].timelimit < time_now && Pledgers[users[userid]].taskList[taskid].status == Status.Pending) {\n            return true;\n        }\n        return false;\n    }\n\n    function payCharities(uint[] memory userids, uint[] memory taskids) public restricted {\n        require(userids.length < 150);\n        for(uint i=0; i< userids.length; i++){\n            if(Pledgers[users[userids[i]]].taskList[taskids[i]].status != Status.Pending){\n                continue;\n            }\n            Pledgers[users[userids[i]]].taskList[taskids[i]].status = Status.Failed;\n            Pledgers[users[userids[i]]].taskList[taskids[i]].charity.transfer(Pledgers[users[userids[i]]].taskList[taskids[i]].amount);\n        }\n    }\n\n    // add a new charity to the list of charity\n    function addCharity(string memory name, address payable charity) public restricted {\n        require(!charities[charity]);\n        charities[charity] = true;\n        Charities.push(Charity(name, charity));\n    }\n\n    function getCharitiesLength() public view returns (uint) {\n        return Charities.length;\n    }\n\n    function getCharity(uint index) public view returns (address, string memory) {\n        require(index < Charities.length);\n        return (Charities[index].charity, Charities[index].name); \n    }\n\n    // Get the address of the owner\n    function getOwner() restricted public view returns (address) {\n        return owner;\n    }\n\n    modifier restricted {\n        require(msg.sender == owner);\n        _;\n    }\n\n}",
  "sourcePath": "I:/projects/proofwk-react/contracts/Tasks.sol",
  "compiler": {
    "name": "solc",
    "version": "0.5.0+commit.1d4f565a.Emscripten.clang"
  },
  "schemaVersion": "3.0.6",
  "updatedAt": "2019-05-02T00:00:36.489Z",
  "devdoc": {
    "methods": {}
  },
  "userdoc": {
    "methods": {}
  }
}